S00C00004C6162382E73726563D1
S11300000C9493000C94B0000C94B0000C94B000C9
S11300100C94B0000C94B0000C94B0000C947902D1
S11300200C94B0000C94B0000C94B0000C94B0008C
S11300300C94B0000C94B0000C94B0000C94B0007C
S11300400C94B0000C94B0000C94B0000C94B0006C
S11300500C94B0000C94B0000C94B0004552523A89
S113006052544F530D0A003D3D3D4C6162382046C9
S113007072656552544F533D3D3D0D0A005B4D542E
S1130080525D2053544F505045440D0A005B4D546B
S1130090525D20464F52574152440D0A000D0A004A
S11300A0205B4F56525D0053544F50004657440056
S11300B04320005B544D505D20543D005B427574F9
S11300C0746F6E5D2050726573736564202D3E4FAE
S11300D0565252494445204F46463A74656D706500
S11300E0726174757220436F6E74726F6C200D0AA6
S11300F0005B427574746F6E5D204F70656E65644D
S1130100202D3E4F565252696465204F4E203A5B73
S11301104D6F746F722053746174655D203A20537F
S1130120544F500D0A0011241FBECFEFD4E0DEBFA0
S1130130CDBF11E0A0E0B1E0E6EDFFE102C0059023
S11301400D92A231B107D9F723E0A2E1B1E001C0D9
S11301501D92AD36B207E1F70E94E50E0C94E90F4B
S11301600C940000FC010396928381832FEF3FEFF0
S113017034832383968385839087878310820895AD
S1130180FC01118610860895CF93DF93EB0148811B
S113019059814F3F2FEF520721F4FC01A781B0850D
S11301A00DC0DC01139601C0DF011296ED91FC91A4
S11301B013972081318142175307B0F71296ED91BE
S11301C0FC911397FB83EA83D583C483BD83AC83FB
S11301D01396DC93CE93129799878887FC0120812C
S11301E02F5F2083DF91CF910895CF93DF93FC019C
S11301F0A085B185C281D381848195819D838C83BF
S1130200C481D581828193819B838A8311968D9148
S11302109C911297E817F90731F48481958112961D
S11302209C938E931197118610868C9181508C9398
S1130230DF91CF910895109289008CE78093880014
S11302408BE080938100EFE6F0E080818260808320
S1130250089531E1FC013083319722E22083319704
S1130260A3E3A08331976083319770833197108221
S1130270319760E8608331971082319762E0608340
S1130280319763E06083319764E06083319765E080
S11302906083319766E06083319767E060833197CC
S11302A068E06083319769E06083319760E160833F
S11302B031973083319732E13083319733E13083A2
S11302C0319734E13083319735E13083319736E12A
S11302D03083319737E13083319738E13083319778
S11302E039E13083319730E23083319731E2308322
S11302F031972083319723E22083319740833197CC
S11303005083319726E22083319727E22083319767
S113031028E22083319729E22083319720E3208348
S1130320319721E32083869708950E941B01A091B1
S11303306603B0916703CD91CDBFDD91DEBFFF9120
S1130340EF91DF91CF91BF91AF919F918F917F9169
S11303506F915F914F913F912F911F910F91FF905A
S1130360EF90DF90CF90BF90AF909F908F907F9051
S11303706F905F904F903F902F901F900F900FBE03
S11303800F90089581E008950F920FB6F8940F929C
S11303901F9211242F923F924F925F926F927F92FD
S11303A08F929F92AF92BF92CF92DF92EF92FF9281
S11303B00F931F932F933F934F935F936F937F9369
S11303C08F939F93AF93BF93CF93DF93EF93FF9359
S11303D0A0916603B09167030DB60D920EB60D920F
S11303E00E94AE0AA0916603B0916703CD91CDBF80
S11303F0DD91DEBFFF91EF91DF91CF91BF91AF917E
S11304009F918F917F916F915F914F913F912F9128
S11304101F910F91FF90EF90DF90CF90BF90AF901E
S11304209F908F907F906F905F904F903F902F9010
S11304301F900F900FBE0F9008950F920FB6F8946F
S11304400F921F9211242F923F924F925F926F92BC
S11304507F928F929F92AF92BF92CF92DF92EF9250
S1130460FF920F931F932F933F934F935F936F9339
S11304707F938F939F93AF93BF93CF93DF93EF9328
S1130480FF93A0916603B09167030DB60D920EB66B
S11304900D920E94A50881110E94AE0AA0916603E4
S11304A0B0916703CD91CDBFDD91DEBFFF91EF9198
S11304B0DF91CF91BF91AF919F918F917F916F9178
S11304C05F914F913F912F911F910F91FF90EF906A
S11304D0DF90CF90BF90AF909F908F907F906F9060
S11304E05F904F903F902F901F900F900FBE0F90F2
S11304F008950E941D021895CF93DF93EC010E948A
S11305009F088091120190911301892B31F486E1A7
S113051091E090931301809312012097C9F0809188
S11305201401909115019E01280F391F233F41E0CA
S1130530340788F48217930788F4C0911201D0918C
S11305401301C80FD91F309315012093140108C05B
S1130550C0E0D0E005C0C0E0D0E002C0C0E0D0E020
S11305600E94BF09CE01DF91CF9108950895DC0167
S113057051962C915197222341F05696ED91FC917E
S11305805797908184E0891B089580E008950FB601
S1130590F8940F92FC01828D811102C081E001C0A8
S11305A080E00F900FBE08950FB6F8940F92FC01EF
S11305B0228D838D281302C081E001C080E00F905A
S11305C00FBE08950F931F93CF93DF93EC01042F75
S11305D01A8D4C8D41110CC088819981892B09F0A9
S11305E042C08C819D810E94B40C1D821C8242C039
S11305F0011117C050E08A819B810E94E00F2C8D6D
S11306008A819B81820F911D9B838A832C813D81EA
S11306108217930750F1888199819B838A8380E0B4
S113062029C050E08E819F810E94E00F8C8D90E064
S11306309195819591092E813F81280F391F3F8320
S11306402E83488159812417350730F42C813D814C
S1130650820F931F9F838E83023049F4112349F044
S1130660115080E007C080E005C080E003C080E056
S113067001C080E01F5F1A8FDF91CF911F910F910E
S11306800895FC01448D4423A9F050E0268137816C
S1130690240F351F378326838481958128173907D2
S11306A020F08081918197838683CB016681778155
S11306B00E94E00F08951F93CF93DF93EC010FB6D0
S11306C0F8940F921E8D0BC08989882351F0CE01B6
S11306D041960E94220B81110E941C0C115011168C
S11306E09CF38FEF8E8F0F900FBE0FB6F8940F927E
S11306F01D8D0BC08885882351F0CE0108960E9479
S1130700220B81110E941C0C115011169CF38FEFC7
S11307108D8F0F900FBEDF91CF911F9108950F938E
S11307201F93CF93DF93FC01362F892B09F44DC01F
S1130730238D222309F44BC0022F10E08FEF9FEF8B
S1130740B8010E949B0F448D842F90E068177907AD
S113075008F43FC0EF010FB6F8940F9260817181E5
S1130760FB01249FE00DF11D1124FD83EC831A8EFF
S11307707B836A8301501109809FA001819F500DE2
S1130780909F500D1124CB01840F951F9F838E835E
S11307908FEF8D8F8E8F31110CC08885882389F05F
S11307A0CE0108960E94220B882359F00E94C401AE
S11307B008C0CE0108960E94B200CE0141960E9464
S11307C0B2000F900FBE81E005C080E003C080E05E
S11307D001C080E0DF91CF911F910F9108950F9395
S11307E01F93F801611103C01183008302C0518378
S11307F04083838F648F61E0CF010E948F031F9138
S11308000F910895DF92EF92FF920F931F93CF936E
S1130810DF93382FE62F882329F1E82EF12C8FEF70
S11308209FEFB7010E949B0FAE2FB0E06A177B07C2
S1130830E0F03E9FC0011124813E9105CCF4D42EFA
S1130840DE2FC32F4F960E947C027C01009791F00B
S11308508C012D2DAC01415E5F4F6D2F8C2F0E94BA
S1130860EF0308C0E12CF12C05C0E12CF12C02C0EF
S1130870E12CF12CC701DF91CF911F910F91FF90D3
S1130880EF90DF900895CF92DF92EF92FF920F9353
S11308901F93CF93DF9300D000D01F92CDB7DEB764
S11308A08C017B015D834C83C22ED12C0FB6F8944E
S11308B00F92F801928D838D981718F0F2E0CF1201
S11308C019C04C2DB701C8010E94E202F8019189B8
S11308D0992349F0C80141960E94220B882331F0E4
S11308E00E94C40103C081110E94C4010F900FBE75
S11308F081E04DC08C819D81892B21F40F900FBE26
S113090080E045C0D11006C0CE0101960E94DF0BE5
S1130910DD24D3940F900FBE0E949F080FB6F89465
S11309200F92F801858D8F3F09F4158EF801868D9D
S11309308F3F09F4168E0F900FBEBE016C5F7F4F80
S1130940CE0101960E94EA0B81111BC0C8010E94CE
S1130950D402882381F06C817D81C80108960E94AD
S1130960100BC8010E945B030E94BF0981119ECF36
S11309700E94C4019BCFC8010E945B030E94BF096F
S113098095CFC8010E945B030E94BF0980E00F90CD
S11309900F900F900F900F90DF91CF911F910F91B7
S11309A0FF90EF90DF90CF900895009769F0FC01DD
S11309B01582148211821082168220E040E050E0F9
S11309C060E070E00E9443040895CF93DF93482FC2
S11309D060E081E00E940204EC010E94D504CE0193
S11309E0DF91CF910895CF92DF92EF92FF920F9310
S11309F01F93CF93DF9300D000D01F92CDB7DEB703
S1130A008C016B015D834C83E12C0FB6F8940F923B
S1130A10F801F28CFF20A9F0B601C8010E9441033D
S1130A20FA94F801F28E8085882339F0C80108967B
S1130A300E94220B81110E94C4010F900FBE81E01D
S1130A4053C08C819D81892B21F40F900FBE80E0CF
S1130A504BC0E11006C0CE0101960E94DF0BEE24CC
S1130A60E3940F900FBE0E949F080FB6F8940F9264
S1130A70F801858D8F3F09F4158EF801868D8F3F1F
S1130A8009F4168E0F900FBEBE016C5F7F4FCE012E
S1130A9001960E94EA0B81111BC0C8010E94C70283
S1130AA0882381F06C817D81C80141960E94100BDE
S1130AB0C8010E945B030E94BF098111A6CF0E9456
S1130AC0C401A3CFC8010E945B030E94BF099DCF4C
S1130AD0C8010E945B030E94BF09C8010E94C702AB
S1130AE0882309F492CF80E00F900F900F900F901D
S1130AF00F90DF91CF911F910F91FF90EF90DF90B6
S1130B00CF900895EF92FF920F931F93CF93DF93AB
S1130B1000D000D01F92CDB7DEB78C017D836C83EB
S1130B20E12CF12C0FB6F8940F92F801828D8823F2
S1130B30D1F08150828F80819181892B29F40E9488
S1130B408A0DF80195838483F8018085882339F020
S1130B50C80108960E94220B81110E94C4010F90C3
S1130B600FBE81E074C08C819D81892B21F40F908C
S1130B700FBE80E06CC0F11006C0CE0101960E9449
S1130B80DF0BFF24F3940F900FBE0E949F080FB653
S1130B90F8940F92F801858D8F3F09F4158EF801B2
S1130BA0868D8F3F09F4168E0F900FBEBE016C5FC9
S1130BB07F4FCE0101960E94EA0B81112AC0C80121
S1130BC00E94C7028823F9F0F80180819181892B62
S1130BD051F40FB6F8940F92848195810E94200CF1
S1130BE0E82E0F900FBE6C817D81C80141960E9452
S1130BF0100BC8010E945B030E94BF09811192CFB0
S1130C000E94C4018FCFC8010E945B030E94BF09E8
S1130C1089CFC8010E945B030E94BF09C8010E94DA
S1130C20C702882309F47ECFEE2081F00FB6F89432
S1130C300F92C8010E94B702682FF8018481958140
S1130C400E94170D0F900FBE80E001C080E00F904E
S1130C500F900F900F900F90DF91CF911F910F91F4
S1130C60FF90EF900895E0912E03F0912F0380817F
S1130C70811107C08FEF9FEF90930E0380930D03B4
S1130C800895E0912E03F0912F030580F681E02D65
S1130C908081918190930E0380930D030895CF93E7
S1130CA0DF93EC018F89988D0E94B602CE010E94D9
S1130CB0B602DF91CF9108958F929F92AF92BF9227
S1130CC0CF92DF92EF92FF920F93CF93DF935C0169
S1130CD04901E601CF88D88C50E041505109C40E37
S1130CE0D51E6115710589F414C0822F90E0FB01B3
S1130CF0E80FF91F3081DE01A80FB91F59963C9304
S1130D008081882329F02F5F01C020E0243068F31C
S1130D101C8E043008F003E00E8B0D8FCE0102967A
S1130D200E94C000CE010C960E94C000D987C887DB
S1130D3084E090E0801B91099D878C87DB8BCA8BB4
S1130D40A401B501C6010E94290199838883E11495
S1130D50F10419F0F701D183C083DF91CF910F9192
S1130D60FF90EF90DF90CF90BF90AF909F908F90C7
S1130D7008954F925F926F927F928F929F92AF925B
S1130D80BF92CF92DF92EF92FF920F931F93CF9374
S1130D90DF932C014B01142F3901842F90E00E9422
S1130DA07C026C01892B99F084E290E00E947C0221
S1130DB0EC01892B41F084E2FE0111928A95E9F756
S1130DC0D88ECF8A06C0C6010E94B60202C0C0E017
S1130DD0D0E0209749F0A12CB12C6E019301412F52
S1130DE0B401C2010E945C06CE01DF91CF911F9134
S1130DF00F91FF90EF90DF90CF90BF90AF909F90B6
S1130E008F907F906F905F904F900895CF93C0E044
S1130E1010C08C2F90E09C01220F331F220F331F30
S1130E20220F331F820F931F8E5B9C4F0E94B200D0
S1130E30CF5FC43070F389E393E00E94B20080E393
S1130E4093E00E94B20083E293E00E94B2008AE140
S1130E5093E00E94B20089E393E090932F03809380
S1130E602E0380E393E090932D0380932C03CF9182
S1130E700895CF93DF93EC010FB6F8940F9280910D
S1130E8018038F5F80931803809166039091670322
S1130E90892B59F4D0936703C09366038091180398
S1130EA0813099F40E94060710C0809114038111C7
S1130EB00CC0E0916603F091670396898E898917C7
S1130EC020F0D0936703C093660380910F038F5F74
S1130ED080930F038E8990911503981710F48093D3
S1130EE0150390E0FC01EE0FFF1FEE0FFF1FEE0F46
S1130EF0FF1F8E0F9F1FFC01EE5BFC4F0180F281F0
S1130F00E02DFD83EC83848195819F838E83A4816E
S1130F10B581CE01029613969C938E931297958376
S1130F208483EE89F0E0CF01880F991F880F991F01
S1130F30880F991FE80FF91FEE5BFC4FFB87EA87C8
S1130F4080818F5F80830F900FBE8091140388236C
S1130F5051F0E0916603F091670396898E899817A2
S1130F6010F40E94C401DF91CF910895CF93DF93D1
S1130F701CC00FB6F8940F92E0911F03F091200368
S1130F80C681D781CE0102960E94F5008091180394
S1130F908150809318038091190381508093190321
S1130FA00F900FBECE010E944F068091190381114C
S1130FB0E0CFDF91CF9108950E94B607809142035C
S1130FC08230D0F30E94C401F7CFCF92DF92EF9228
S1130FD0FF920F931F93CF93DF93EC0100911603BD
S1130FE010911703E0902E03F0902F03C0902C0370
S1130FF0D0902D03809166039091670302960E941E
S1131000F500C00FD11FE0916603F0916703D3830D
S1131010C283C017D10750F46091660370916703CF
S11310206E5F7F4FC6010E94C40014C060916603C6
S1131030709167036E5F7F4FC7010E94C400809167
S11310400D0390910E03C817D90720F4D0930E0313
S1131050C0930D03DF91CF911F910F91FF90EF90FB
S1131060DF90CF900895EF92FF920F930E94B906FC
S1131070009721F00E94390781E001C08FEF0F91A2
S1131080FF90EF900895EF92FF920F931F93CF93E9
S1131090DF9300D000D0CDB7DEB720E012C0822F9E
S11310A0022E000C990BFC01EF5FFE4F3081E1E052
S11310B0F0E0EC0FFD1FE80FF91F3083332319F024
S11310C02F5F243064F310E081E015C0812F880F76
S11310D0990B9C01255F3C4F790100E020E030E052
S11310E04CE3BE016F5F7F4F8CED97E00E943308A5
S11310F0882319F01F5F11164CF70F900F900F9073
S11311000F90DF91CF911F910F91FF90EF90089571
S11311100E944308813081F4F8948FEF9FEF9093FD
S11311200E0380930D0381E0809314031092170340
S1131130109216030E9495018091000108958091F8
S11311400A038F5F80930A0308950F931F93CF932D
S1131150DF9380910A03811101C1C0911603D091DC
S113116017038E010F5F1F4F10931703009316038D
S113117001151105B9F480912E0390912F0320914C
S11311802C0330912D0330932F0320932E0390933F
S11311902D0380932C03809110038F5F80931003A1
S11311A00E94330680910D0390910E0308171907CE
S11311B020F480E0B8C081E001C080E0E0912E031B
S11311C0F0912F039081911107C02FEF3FEF3093DF
S11311D00E0320930D03A7C0E0912E03F0912F037B
S11311E00580F681E02D0680F781E02D2281338190
S11311F00217130728F430930E0320930D0393C0B2
S1131200A285B3852481358146815781E9015D83B7
S11312104C832681378144815581E9015B834A836C
S113122011962D913C911297AF014E5F5F4F241799
S1131230350731F42681378112963C932E9311970A
S1131240138612869C9191509C93A489B58910971A
S113125019F12685378560897189E9017D836C835D
S11312602089318966857785E9017B836A831196B4
S11312706D917C9112979F01245F3F4F6217730712
S113128031F42089318912963C932E931197158A53
S1131290148A9C9191509C932689909115039217DE
S11312A010F42093150330E0D901AA0FBB1FAA0F35
S11312B0BB1FAA0FBB1F2A0F3B1FD901AE5BBC4F3C
S11312C011960D90BC91A02DB583A48314962D91F5
S11312D03C9115973783268314962D913C9115974D
S11312E0E9015B834A8315965C934E931497A68910
S11312F0B0E09D01220F331F220F331F220F331F33
S1131300A20FB31FAE5BBC4FB387A2879C919F5FB4
S11313109C932689E0916603F0916703968992175E
S113132008F449CF4BCFE0916603F0916703268917
S113133030E0F901EE0FFF1FEE0FFF1FEE0FFF1F4E
S11313402E0F3F1FF901EE5BFC4F9081923008F0A5
S113135081E09091110391110CC00CC08091120393
S1131360909113030196909313038093120380E0EA
S113137001C081E0DF91CF911F910F910895CF9328
S1131380DF930FB6F8940F9280910A0381508093F3
S11313900A0380910A038111C3C08091180381114B
S11313A096C0C1C0E0912803F09129030680F7811B
S11313B0E02DA489B589C685D785808991899D83C7
S11313C08C83C089D189868597859B838A8311966E
S11313D02D913C911297CF010C962817390731F4BF
S11313E08089918912969C938E931197158A148AF9
S11313F08C9181508C93A285B385C481D5818681DB
S113140097819D838C83C681D781848195819B83B9
S11314108A8311968D919C9112979F012E5F3F4F65
S11314208217930731F48681978112969C938E9349
S11314301197138612868C9181508C938689909192
S11314401503981710F48093150390E0DC01AA0F9C
S1131450BB1FAA0FBB1FAA0FBB1F8A0F9B1FDC0158
S1131460AE5BBC4F11960D90BC91A02DB583A483A7
S113147014968D919C911597978386831496CD919C
S1131480DC9115973B832A8315963C932E931497EE
S1131490A689B0E0CD01880F991F880F991F880F86
S11314A0991FA80FB91FAE5BBC4FB387A2878C915D
S11314B08F5F8C939689A0916603B09167035696CB
S11314C08C91891730F481E08093110302C0E0E02D
S11314D0F0E080912303811165CFEF2B11F00E947E
S11314E03306C0911203D0911303209769F00E9430
S11314F0A508882319F081E0809311032197B9F797
S1131500109213031092120380911103882351F057
S113151080916603909167030E94C40181E003C037
S113152080E001C080E00F900FBEDF91CF9108955D
S1131530CF93DF93EC01892B49F00E949F0860E070
S1131540CE010E94E5070E94BF0901C080E081111D
S113155002C00E94C401DF91CF91089580910A03D3
S1131560882321F081E080931103089510921103E0
S11315702091150301C02150822F90E0FC01EE0F51
S1131580FF1FEE0FFF1FEE0FFF1FE80FF91FEE5BAB
S1131590FC4F3081332379F3AC01440F551F440FC2
S11315A0551F440F551F480F591FFA01EE5BFC4F9E
S11315B0A181B28112966D917C911397728361839C
S11315C04B5B5C4F6417750779F4FC01EE0FFF1F4A
S11315D0EE0FFF1FEE0FFF1FE80FF91FEE5BFC4F2E
S11315E04581568152834183FC01EE0FFF1FEE0FAC
S11315F0FF1FEE0FFF1F8E0F9F1FFC01EE5BFC4FC2
S11316000180F281E02D8681978190936703809316
S113161066032093150380916603909167030895F0
S1131620CF93DF93EB016091660370916703645F6E
S11316307F4F0E94C40061E0CE010E94E507DF9164
S1131640CF910895CF93DF93DC011596ED91FC9132
S113165016970680F781E02DA489B589C685D785BC
S1131660808991899D838C83C089D189868597855A
S11316709B838A8311968D919C9112979F01245F7D
S11316803F4F8217930731F48089918912969C9376
S11316908E931197158A148A8C9181508C93809122
S11316A00A03811160C0A285B385C481D581868176
S11316B097819D838C83C681D781848195819B8307
S11316C08A8311968D919C9112979F012E5F3F4FB3
S11316D08217930731F48681978112969C938E9397
S11316E01197138612868C9181508C9386899091E0
S11316F01503981710F48093150390E0DC01AA0FEA
S1131700BB1FAA0FBB1FAA0FBB1F8A0F9B1FDC01A5
S1131710AE5BBC4F11960D90BC91A02DB583A483F4
S113172014968D919C911597978386831496CD91E9
S1131730DC9115973B832A8315963C932E9314973B
S1131740A689B0E0CD01880F991F880F991F880FD3
S1131750991FA80FB91FAE5BBC4FB387A2878C91AA
S11317608F5F8C931CC043E253E0DA011196CD9154
S1131770DC911297D787C6878C819D81918B808B52
S11317808C819D81DC0113963C932E9312973D83AB
S11317902C83558B448BDA018C918F5F8C939689C3
S11317A0E0916603F09167038689891720F481E04C
S11317B08093110301C080E0DF91CF9108952091BF
S11317C01003FC0120832091160330911703328308
S11317D021830895CF93DF930FB6F8940F9240912D
S11317E0160350911703EC0129813A81DA01A21BF7
S11317F0B30BF881E0911003FE1741F04217530731
S113180028F0FB011182108281E011C0EB012881D4
S11318103981A217B30740F42A1B3B0B3983288371
S11318200E94DF0B80E003C01982188281E00F90D0
S11318300FBEDF91CF91089581E080931103089545
S11318400F931F93CF93DF93FC01892B09F484C07A
S11318502689A0916603B091670356968C91281748
S113186008F070C084859585992364F0A09166037F
S1131870B091670356963C9184E090E0831B9109F4
S1131880958784878285938530E0A901440F551F8D
S1131890440F551F440F551F240F351F2E5B3C4F1B
S11318A08217930709F045C0EF018F010E5F1F4FA8
S11318B0C8010E94F500E0916603F09167038689F0
S11318C08E8B90911503981710F48093150390E074
S11318D0FC01EE0FFF1FEE0FFF1FEE0FFF1F8E0F19
S11318E09F1FFC01EE5BFC4F0180F281E02DFD8324
S11318F0EC83848195819F838E83A481B581139623
S11319001C930E931297158304838E8990E0FC0137
S1131910EE0FFF1FEE0FFF1FEE0FFF1FE80FF91F63
S1131920EE5BFC4FFB87EA8780818F5F808381E0D9
S113193016C0A0916603B091670356968C91868B6E
S113194081E00DC0958DE0916603F091670386896F
S1131950981720F080E003C080E001C081E0DF91AF
S1131960CF911F910F9108950F931F93CF93DF93FE
S1131970FC01892B09F451C0868D8150868F2689FC
S1131980958D291709F44BC081114BC0EF018F01CC
S11319900E5F1F4FC8010E94F5008D8D8E8B24E0D1
S11319A030E0281B31093D872C8790911503981747
S11319B010F48093150390E0FC01EE0FFF1FEE0F6F
S11319C0FF1FEE0FFF1F8E0F9F1FFC01EE5BFC4FEE
S11319D00180F281E02DFD83EC83848195819F83D6
S11319E08E83A481B58113961C930E93129715834D
S11319F00483EE89F0E0CF01880F991F880F991FA7
S1131A00880F991FE80FF91FEE5BFC4FFB87EA87ED
S1131A1080818F5F808381E005C080E003C080E027
S1131A2001C080E0DF91CF911F910F9108950F9332
S1131A301F93CF93DF93FC01892B09F466C0958D26
S1131A40961708F4962F8689981709F45EC0268D98
S1131A50213009F05AC0968B24853585332334F020
S1131A6024E030E0291B310935872487228533851A
S1131A7090E0AC01440F551F440F551F440F551FF0
S1131A80840F951F8E5B9C4F28173907F1F5EF01E2
S1131A908F010E5F1F4FC8010E94F5008E8990913F
S1131AA01503981710F48093150390E0FC01EE0FD2
S1131AB0FF1FEE0FFF1FEE0FFF1F8E0F9F1FFC0176
S1131AC0EE5BFC4F0180F281E02DFD83EC83848189
S1131AD095819F838E83A481B58113961C930E9365
S1131AE01297158304838E8990E0FC01EE0FFF1F8B
S1131AF0EE0FFF1FEE0FFF1FE80FF91FEE5BFC4F09
S1131B00FB87EA8780818F5F8083DF91CF911F916C
S1131B100F9108958091660390916703009721F0D7
S1131B20FC01268D2F5F268F089584B18F7D84B9A3
S1131B3085B1806285B9089583B182958695877051
S1131B4091E089278170089580E480937C0087E880
S1131B5080937A000895ECE7F0E08081807E8083B2
S1131B60EAE7F0E080818064808380917A0086FDDA
S1131B70FCCF2091780030917900A4EFB1E00E946D
S1131B80D10FDC01CB01072E7AE0B695A795979586
S1131B9087957A95D1F7702D089584B18C6084B9B6
S1131BA0089585B1846085B985B1877F85B9089525
S1131BB085B18B7F85B985B1877F85B90895CF932A
S1131BC0DF93FC0103C00E945C0FFE01EF0121962C
S1131BD084918111F8CFDF91CF910895CF93DF9352
S1131BE01F92CDB7DEB70E949C0D082F0E949C0D5A
S1131BF0182F081709F445C0813049F581E0809316
S1131C006803198220E040E050E0BE016F5F7F4F1F
S1131C1080916B0390916C030E9443046FEF7FEFFC
S1131C208091690390916A030E94820581EF90E09C
S1131C300E94DF0D20E040E050E060E070E0809121
S1131C40690390916A030E944304012F1AC0109201
S1131C5068036FEF7FEF8091690390916A030E949C
S1131C6082058CEB90E00E94DF0D20E040E050E024
S1131C7060E070E08091690390916A030E944304DC
S1131C80012F82E390E00E94980AB0CFCF93DF93B4
S1131C901F92CDB7DEB70E94AB0D182F81E01A3129
S1131CA008F480E089836FEF7FEF8091690390915E
S1131CB06A030E94820583EB90E00E94DF0D812F6E
S1131CC00E94630F80EB90E00E94DF0D89818130D8
S1131CD019F48CEA90E002C087EA90E00E94DF0DDC
S1131CE080916803882321F080EA90E00E94DF0D50
S1131CF08DE990E00E94DF0D20E040E050E060E0DC
S1131D0070E08091690390916A030E94430480917A
S1131D10680381110CC020E040E050E0BE016F5F19
S1131D207F4F80916B0390916C030E94430484EF76
S1131D3091E00E94980AAFCFCF93DF931F92CDB763
S1131D40DEB74FEF5FEFBE016F5F7F4F80916B0394
S1131D5090916C030E94F304813099F7898181305A
S1131D60D1F40E94D10D6FEF7FEF809169039091C0
S1131D706A030E9482058DE890E00E94DF0D20E056
S1131D8040E050E060E070E08091690390916A0364
S1131D900E944304D6CF0E94D80D6FEF7FEF80914D
S1131DA0690390916A030E9482058DE790E00E9486
S1131DB0DF0D20E040E050E060E070E080916903D6
S1131DC090916A030E944304BCCF60E875E280E00E
S1131DD090E00E94350F0E94A40D0E94950D0E9470
S1131DE0CD0D87E690E00E94DF0D40E061E081E0E8
S1131DF00E94020490936C0380936B0381E00E9421
S1131E00E50490936A038093690320916B033091F6
S1131E106C03232B11F0892B29F48CE590E00E94AC
S1131E20DF0DFFCFE12CF12C03E020E030E04CE3A8
S1131E3066E071E08EEE9DE00E94330802E020E04F
S1131E4030E04CE36AE071E086E49EE00E943308EF
S1131E5001E020E030E04CE36EE071E08CE99EE0CC
S1131E600E9433080E948808FFCFDC01CB01880F51
S1131E70991FAA1FBB1F880F991FAA1FBB1F9C0174
S1131E80AD01220F331F441F551F220F331F441F60
S1131E90551F60E072E18AE790E00E94AF0F215085
S1131EA031093093C5002093C40088E08093C100B9
S1131EB086E08093C20008959091C00095FFFCCF06
S1131EC08093C6000895CF93C82F843648F089E2E2
S1131ED0C89F812D112482958F70805D0E945C0FB4
S1131EE0CA30B0F09DECC99F812D1124869586954A
S1131EF08695899F912D1124969596959695990F7F
S1131F00292F220F220F920F891B805D0E945C0FE4
S1131F109DECC99F912D1124969596959695990FB0
S1131F20892F880F880F980F8C2F891B805D0E9442
S1131F305C0FCF910895AA1BBB1B51E107C0AA1FD8
S1131F40BB1FA617B70710F0A61BB70B881F991F56
S1131F505A95A9F780959095BC01CD010895A1E209
S1131F601A2EAA1BBB1BFD010DC0AA1FBB1FEE1F0F
S1131F70FF1FA217B307E407F50720F0A21BB30B5A
S1131F80E40BF50B661F771F881F991F1A9469F7D6
S1131F9060957095809590959B01AC01BD01CF0132
S1131FA00895A29FB001B39FC001A39F700D811D2E
S1131FB01124911DB29F700D811D1124911D08954E
S1131FC0FB01DC0102C001900D9241505040D8F752
S1091FD00895F894FFCF10
S1131FD60349444C450042544E00544D50004D5460
S1051FE65200A3
S9030000FC
